{
  "contractName": "NewBlock",
  "abi": [
    {
      "constant": true,
      "inputs": [],
      "name": "imageCount",
      "outputs": [
        {
          "internalType": "uint256",
          "name": "",
          "type": "uint256"
        }
      ],
      "payable": false,
      "stateMutability": "view",
      "type": "function"
    },
    {
      "constant": true,
      "inputs": [
        {
          "internalType": "uint256",
          "name": "",
          "type": "uint256"
        }
      ],
      "name": "images",
      "outputs": [
        {
          "internalType": "uint256",
          "name": "imageID",
          "type": "uint256"
        },
        {
          "internalType": "string",
          "name": "pHash",
          "type": "string"
        },
        {
          "internalType": "string",
          "name": "ipfsAddress",
          "type": "string"
        },
        {
          "internalType": "string",
          "name": "owner_name",
          "type": "string"
        },
        {
          "internalType": "string",
          "name": "owner_email",
          "type": "string"
        },
        {
          "internalType": "string",
          "name": "image_title",
          "type": "string"
        }
      ],
      "payable": false,
      "stateMutability": "view",
      "type": "function"
    },
    {
      "constant": false,
      "inputs": [
        {
          "internalType": "string",
          "name": "_pHash",
          "type": "string"
        },
        {
          "internalType": "string",
          "name": "_ipfsAddress",
          "type": "string"
        },
        {
          "internalType": "string",
          "name": "_owner_name",
          "type": "string"
        },
        {
          "internalType": "string",
          "name": "_owner_email",
          "type": "string"
        },
        {
          "internalType": "string",
          "name": "_image_title",
          "type": "string"
        }
      ],
      "name": "addImage",
      "outputs": [],
      "payable": false,
      "stateMutability": "nonpayable",
      "type": "function"
    }
  ],
  "bytecode": "0x60806040526000805534801561001457600080fd5b50610adb806100246000396000f3fe608060405234801561001057600080fd5b50600436106100415760003560e01c80636bcb21dd14610046578063848564821461030057806392053b6314610534575b600080fd5b6102fe600480360360a081101561005c57600080fd5b810190602081018135600160201b81111561007657600080fd5b82018360208201111561008857600080fd5b803590602001918460018302840111600160201b831117156100a957600080fd5b91908080601f0160208091040260200160405190810160405280939291908181526020018383808284376000920191909152509295949360208101935035915050600160201b8111156100fb57600080fd5b82018360208201111561010d57600080fd5b803590602001918460018302840111600160201b8311171561012e57600080fd5b91908080601f0160208091040260200160405190810160405280939291908181526020018383808284376000920191909152509295949360208101935035915050600160201b81111561018057600080fd5b82018360208201111561019257600080fd5b803590602001918460018302840111600160201b831117156101b357600080fd5b91908080601f0160208091040260200160405190810160405280939291908181526020018383808284376000920191909152509295949360208101935035915050600160201b81111561020557600080fd5b82018360208201111561021757600080fd5b803590602001918460018302840111600160201b8311171561023857600080fd5b91908080601f0160208091040260200160405190810160405280939291908181526020018383808284376000920191909152509295949360208101935035915050600160201b81111561028a57600080fd5b82018360208201111561029c57600080fd5b803590602001918460018302840111600160201b831117156102bd57600080fd5b91908080601f01602080910402602001604051908101604052809392919081815260200183838082843760009201919091525092955061054e945050505050565b005b61031d6004803603602081101561031657600080fd5b503561071d565b60405180878152602001806020018060200180602001806020018060200186810386528b818151815260200191508051906020019080838360005b83811015610370578181015183820152602001610358565b50505050905090810190601f16801561039d5780820380516001836020036101000a031916815260200191505b5086810385528a5181528a516020918201918c019080838360005b838110156103d05781810151838201526020016103b8565b50505050905090810190601f1680156103fd5780820380516001836020036101000a031916815260200191505b5086810384528951815289516020918201918b019080838360005b83811015610430578181015183820152602001610418565b50505050905090810190601f16801561045d5780820380516001836020036101000a031916815260200191505b5086810383528851815288516020918201918a019080838360005b83811015610490578181015183820152602001610478565b50505050905090810190601f1680156104bd5780820380516001836020036101000a031916815260200191505b50868103825287518152875160209182019189019080838360005b838110156104f05781810151838201526020016104d8565b50505050905090810190601f16801561051d5780820380516001836020036101000a031916815260200191505b509b50505050505050505050505060405180910390f35b61053c610a05565b60408051918252519081900360200190f35b60006002836040516020018082805190602001908083835b602083106105855780518252601f199092019160209182019101610566565b6001836020036101000a0380198251168184511680821785525050505050509050019150506040516020818303038152906040526040518082805190602001908083835b602083106105e85780518252601f1990920191602091820191016105c9565b51815160209384036101000a60001901801990921691161790526040519190930194509192505080830381855afa158015610627573d6000803e3d6000fd5b5050506040513d602081101561063c57600080fd5b50516000805460019081018083556040805160c08101825285815260208181018d81528284018d9052606083018c9052608083018b905260a083018a9052938652848152919094208451815591518051959650939491936106a293850192910190610a0b565b50604082015180516106be916002840191602090910190610a0b565b50606082015180516106da916003840191602090910190610a0b565b50608082015180516106f6916004840191602090910190610a0b565b5060a08201518051610712916005840191602090910190610a0b565b505050505050505050565b600160208181526000928352604092839020805481840180548651600296821615610100026000190190911695909504601f810185900485028601850190965285855290949193929091908301828280156107b95780601f1061078e576101008083540402835291602001916107b9565b820191906000526020600020905b81548152906001019060200180831161079c57829003601f168201915b50505060028085018054604080516020601f600019610100600187161502019094169590950492830185900485028101850190915281815295969594509092509083018282801561084b5780601f106108205761010080835404028352916020019161084b565b820191906000526020600020905b81548152906001019060200180831161082e57829003601f168201915b5050505060038301805460408051602060026001851615610100026000190190941693909304601f81018490048402820184019092528181529495949350908301828280156108db5780601f106108b0576101008083540402835291602001916108db565b820191906000526020600020905b8154815290600101906020018083116108be57829003601f168201915b5050505060048301805460408051602060026001851615610100026000190190941693909304601f810184900484028201840190925281815294959493509083018282801561096b5780601f106109405761010080835404028352916020019161096b565b820191906000526020600020905b81548152906001019060200180831161094e57829003601f168201915b5050505060058301805460408051602060026001851615610100026000190190941693909304601f81018490048402820184019092528181529495949350908301828280156109fb5780601f106109d0576101008083540402835291602001916109fb565b820191906000526020600020905b8154815290600101906020018083116109de57829003601f168201915b5050505050905086565b60005481565b828054600181600116156101000203166002900490600052602060002090601f016020900481019282601f10610a4c57805160ff1916838001178555610a79565b82800160010185558215610a79579182015b82811115610a79578251825591602001919060010190610a5e565b50610a85929150610a89565b5090565b610aa391905b80821115610a855760008155600101610a8f565b9056fea265627a7a72315820cd3fed08c4fc97c8bd4b21e3897e633745a0c97129a6c2a407e90cf61b218d1a64736f6c63430005100032",
  "source": "// SPDX-License-Identifier: MIT\n\npragma solidity 0.5.16;\ncontract NewBlock {\n    uint public imageCount = 0;\n\n    struct ImageInfo{\n        uint imageID;\n        string pHash;\n        string ipfsAddress;\n        string owner_name;\n        string owner_email;\n        string image_title;\n    }\n\n    mapping(uint => ImageInfo) public images;\n\n    function addImage(string memory _pHash, string memory _ipfsAddress, string memory _owner_name, string memory _owner_email, string memory _image_title) public{\n        uint result = uint(sha256(abi.encodePacked(_owner_email)));\n\n        imageCount++;\n        images[imageCount] = ImageInfo(result, _pHash, _ipfsAddress, _owner_name, _owner_email, _image_title);\n    }\n}",
  "sourcePath": "G:/College/BC/Copyright/contracts/NewBlock.sol",
  "compiler": {
    "name": "solc",
    "version": "0.5.16+commit.9c3226ce.Emscripten.clang"
  },
  "schemaVersion": "3.3.4",
  "updatedAt": "2021-04-18T16:47:36.001Z",
  "devdoc": {
    "methods": {}
  },
  "userdoc": {
    "methods": {}
  }
}